:020000040800F2
:10000000B806002091010008990100089B01000832
:100010009D0100089F010008A101000800000000E8
:10002000000000000000000000000000A301000824
:10003000A501000800000000A7010008A9010008B0
:10004000AB010008AB010008AB010008AB010008E0
:10005000AB010008AB010008AB010008AB010008D0
:10006000AB010008AB010008AB010008AB010008C0
:10007000AB010008AB010008AB010008AB010008B0
:10008000AB010008AB010008AB010008AB010008A0
:10009000AB010008AB010008AB010008AB01000890
:1000A000AB010008AB010008AB010008AB01000880
:1000B000AB010008AB01000800000000AB01000824
:1000C000AB0100080000000000000000AB010008C8
:1000D00000000000AB010008AB01000800000000B8
:1000E000AB010008AB010008AB01000800F002F80A
:1000F00000F03FF80AA090E8000C82448344AAF183
:100100000107DA4501D100F034F8AFF2090EBAE880
:100110000F0013F0010F18BFFB1A43F0010318473B
:10012000D00A0000F00A0000103A24BF78C878C155
:10013000FAD8520724BF30C830C144BF04680C60ED
:10014000704700000023002400250026103A28BF35
:1001500078C1FBD8520728BF30C148BF0B60704739
:10016000692900F07D80002070471FB51FBD10B5C4
:1001700010BD00F02AF91146FFF7F7FF00F066FC0A
:1001800000F048F903B4FFF7F2FF03BC00F050F9A8
:100190000948804709480047FEE7FEE7FEE7FEE71B
:1001A000FEE7FEE7FEE7FEE7FEE7FEE70448054957
:1001B000054A064B70470000FD070008ED000008E7
:1001C000B8000020B8060020B8020020B8020020C5
:1001D0000FB41CB5074B06AA7B44694600900598EE
:1001E00000F0DBF80020694600F0EAF81CBC5DF87E
:1001F00014FB0000E50100002DE9F0410E46044625
:10020000002020622046E168884730B3252805D0C9
:10021000D4E901219047206A401CF2E7E1682046BA
:1002200000278847050018D0A5F14100192802D8F9
:1002300020354FF400673246294620462760FFF7F5
:100240008FFF40B1012804D0F61D26F007060836BE
:10025000D8E7361DD6E72846DAE7206ABDE8F08100
:100260002DE9F0410646002410687529314616A58F
:1002700010D0AFF30080002802DA404213A507E057
:1002800031688A0701D512A502E0490704D511A5F6
:10029000012401E0AFF3008000210A2206F12407C7
:1002A00009E0B0FBF2FCB0FBF2F302FB1C003030C3
:1002B00078541846491C0028F3D123462A46304674
:1002C000BDE8F04100F00BB8000000002D00000078
:1002D0002B000000200000007047704770472DE998
:1002E000F0470D4699469246044600F124080168FD
:1002F000880604D5E06921F01001216000E00120AA
:10030000A84201DD471B00E00027A1697A1902EB32
:100310000900081AA0612078C00602D42046AFF375
:100320000080002608E0D4E901211AF80600904771
:10033000206A401C761C20624E45F4DB2078C00603
:100340000AD52046AFF3008006E0D4E90121302031
:100350009047206A401C2062381EA7F10107F4DC98
:1003600007E0D4E9012118F805009047206A401CF5
:100370002062281EA5F10105F3DC2046AFF30080C2
:100380002078000602D50220BDE8F0870120FBE7B7
:1003900001694A1C02610878704700B58FB0CDE949
:1003A00001310021059105497944CDE90310114639
:1003B0006846FFF721FF0FB000BD0000E5FFFFFF1B
:1003C0000A6802F8010B0A607047754600F02CF8C5
:1003D000AE4605006946534620F00700854618B032
:1003E00020B5FFF7E3FEBDE820404FF000064FF0D8
:1003F00000074FF000084FF0000B21F00701AC465A
:10040000ACE8C009ACE8C009ACE8C009ACE8C00978
:100410008D46704710B50446AFF300802046BDE816
:100420001040FFF7AFBE00000048704758000020A2
:1004300001491820ABBEFEE72600020070472DE9F7
:10044000F04102460025002600200023002400275A
:1004500091F803C00CF00F0591F803C00CF0100CDC
:10046000BCF1000F03D091F802C04CEA050591F8E9
:1004700000C0BCF1000F31D0146800202BE04FF019
:10048000010C0CFA00F3B1F800C00CEA03069E421E
:1004900020D183004FF00F0C0CFA03F7BC4305FA90
:1004A00003FC4CEA040491F803C0BCF1280F06D108
:1004B0004FF0010C0CFA00FCC2F814C00AE091F8ED
:1004C00003C0BCF1480F05D14FF0010C0CFA00FC41
:1004D000C2F810C0401C0828D1D31460B1F800C085
:1004E000BCF1FF0F34DD546800202EE000F1080C51
:1004F0004FF0010808FA0CF3B1F800C00CEA03064B
:100500009E4221D183004FF00F0C0CFA03F7BC433D
:1005100005FA03FC4CEA040491F803C0BCF1280F6F
:1005200005D100F1080C08FA0CF8C2F8148091F813
:1005300003C0BCF1480F07D100F1080C4FF00108CF
:1005400008FA0CF8C2F81080401C0828CED354607A
:10055000BDE8F0810AB1016100E04161704700002F
:1005600029B1064A92690243044B9A6104E0034AA6
:1005700092698243014B9A6170470000001002406B
:1005800001460020034A106820F0F80040EAC1004C
:10059000106070470010024010B501460022002391
:1005A00000204A11012A02D1094C236806E0022AE0
:1005B00002D1074C236A01E0054C636A01F01F0277
:1005C000012494401C400CB1012000E0002010BD2B
:1005D000001002400248406800F00C007047000024
:1005E0000010024001460020034A506820F0F0004D
:1005F0000843506070470000001002400149086045
:10060000704700000000424201460020034A506843
:1006100020F4E06008435060704700000010024082
:1006200001460020034A506820F4605040EAC100AF
:100630005060704700100240014908667047000092
:100640000000424202460020044B586820F47C100F
:1006500042EA01031843014B586070470010024002
:1006600001460020034A506820F003000843506010
:10067000704700000010024010B52348006820F0C9
:100680000300801C2049086000BF1F48006800F07C
:1006900003000228F9D11020FFF772FF0120FFF7B5
:1006A000ADFF00BF2120FFF777FF0028FAD010210F
:1006B0000020FFF7C7FF0120FFF7BEFF00BF392072
:1006C000FFF76AFF0028FAD00020FFF78BFF002019
:1006D000FFF7A6FF4FF48060FFF796FF0220FFF7B9
:1006E000BFFF00BFFFF776FF0828FBD14FF6FF10D2
:1006F0004FF0E0214861002088610520086103482F
:100700000349086010BD0000002002400090D003A3
:100710000400002010B500F001F810BD0CB5002059
:10072000019000903348006840F4803031490860FF
:1007300000BF3048006800F4003000900198401C71
:100740000190009818B90198B0F5A06FF1D129482F
:10075000006800F4003010B10120009001E000209A
:1007600000900098012843D12348006840F0100011
:10077000214908600846006820F003000860084628
:10078000006840F0020008601A4840681949486053
:100790000846406848600846406840F48060486009
:1007A0000846406820F47C1048600846406840F4E1
:1007B000E81048600846006840F08070086000BF9C
:1007C0000C48006800F000700028F9D00948406823
:1007D00020F00300074948600846406840F00200E6
:1007E000486000BF0348406800F00C000828F9D1B9
:1007F0000CBD0000001002400020024010B513485C
:10080000006840F00100114908600846406810493E
:1008100008400E494860084600680E4908400B49E8
:1008200008600846006820F4802008600846406898
:1008300020F4FE0048604FF41F008860FFF76AFF55
:100840004FF000600449086010BD00000010024035
:100850000000FFF8FFFFF6FE08ED00E010B50446CB
:10086000E2B240210148FFF775FE10BD000C0140C7
:1008700010B5012000F0BCF8022000F0D2F810BD45
:1008800070B505460C46012D03D10E2000F0B0F8DE
:1008900002E0002000F0ACF8012C03D10D2000F0A4
:1008A000A7F802E0002000F0A3F870BD08B5012110
:1008B0000420FFF755FE4FF44870ADF800001020FB
:1008C0008DF8030002208DF8020069463548FFF7D5
:1008D000B6FD01210820FFF743FE4FF48E60ADF80E
:1008E000000010208DF8030002208DF802006946F8
:1008F0002D48FFF7A4FD01211020FFF731FE8020D5
:10090000ADF8000010208DF8030002208DF80200E1
:1009100069462648FFF793FD322000F082F8002058
:1009200000F066F8052000F07CF8032000F060F885
:10093000012000F076F8032000F05AF80A2000F0B9
:1009400070F8032000F054F80A2000F06AF8022042
:1009500000F04EF8012000F064F8022000F048F8A2
:10096000012000F05EF8082000F042F8012000F0BD
:1009700058F8012000F055F8002000F039F8012067
:1009800000F04FF80C2000F033F8012000F049F897
:10099000002000F02DF8012000F043F8062000F0C0
:1009A00027F808BD00080140000C0140001001407C
:1009B00070B505460C4615B1012D06D102E044F094
:1009C000800402E044F0C00400BF00BFE0B200F0C9
:1009D0000FF870BD70B5044625090121284600F0C6
:1009E000CDF804F00F050121284600F0C7F870BDCE
:1009F00070B5044625090021284600F0BFF804F030
:100A00000F050021284600F0B9F870BD10B5044666
:100A100003E014F8010BFFF7DDFF20780028F8D180
:100A200010BD08B54FF0E0210969009100BF411CDD
:100A300001B1401C06E04FF0E021096901F480316A
:100A400001B1401E0028F6D108BD000008B540489D
:100A5000806940F001003E4988610846806900F0E5
:100A60000100009000BF0846C06940F08050C86196
:100A70000846C06900F08050009000BF35484068CB
:100A800020F0E060334948600846406840F08060EC
:100A9000486003200246304B19684FF6FF031940A7
:100AA0002E4B0B4343EA02212B4B196000BFFFF78B
:100AB000E3FDFFF7FBFE0120FFF7D0FEFFF7D8FEB6
:100AC00000210846FFF7DCFE4F20FFF783FF4C2094
:100AD000FFF780FF4120FFF77DFF2020FFF77AFF1F
:100AE0003220FFF777FF3020FFF774FF3220FFF747
:100AF00071FF3120FFF76EFF4FF4FA60FFF791FFAF
:100B0000FFF7B6FE23E000210846FFF751FF144827
:100B100014A102681748FFF75BFB1648FFF776FF42
:100B20000F480068401C0E4908600122202112482D
:100B3000FFF710FD4FF4FA70FFF773FF002220213A
:100B40000D48FFF707FD4FF4FA70FFF76AFFDAE789
:100B500000100240000001400CED00E00000FA052A
:100B600000000020436F6E7461646F723A20256943
:100B700000000000180000200008014070B5044685
:100B80000D46EAB24FF400711648FFF7E3FCC4F3D8
:100B9000C0024FF480711348FFF7DCFCC4F38002FD
:100BA0004FF480611048FFF7D5FCC4F340021021D8
:100BB0000D48FFF7CFFC04F0010220210A48FFF79F
:100BC000C9FC012280210948FFF7C4FC0120FFF77E
:100BD00028FF002280210548FFF7BCFC0120FFF719
:100BE00020FF70BD00080140000C014000100140D2
:100BF000100C000800000020180000002801000868
:100C0000280C000818000020A0060000440100087D
:100C10000000000000A24A040000000000000000E4
:080C20000102030406070809A4
:04000005080000ED02
:00000001FF
